{
  "contractName": "Provenance",
  "abi": [
    {
      "anonymous": false,
      "inputs": [
        {
          "indexed": false,
          "name": "_provenance",
          "type": "bytes32"
        },
        {
          "indexed": false,
          "name": "_modifier",
          "type": "address"
        }
      ],
      "name": "ProvenanceChanged",
      "type": "event"
    },
    {
      "constant": false,
      "inputs": [
        {
          "name": "_provenanceRoot",
          "type": "bytes32"
        }
      ],
      "name": "setProvenanceRoot",
      "outputs": [
        {
          "name": "",
          "type": "bool"
        }
      ],
      "payable": false,
      "stateMutability": "nonpayable",
      "type": "function"
    },
    {
      "constant": true,
      "inputs": [],
      "name": "getProvenanceRoot",
      "outputs": [
        {
          "name": "",
          "type": "bytes32"
        }
      ],
      "payable": false,
      "stateMutability": "view",
      "type": "function"
    },
    {
      "constant": true,
      "inputs": [
        {
          "name": "provenance",
          "type": "bytes32"
        }
      ],
      "name": "getLineageProvenance",
      "outputs": [
        {
          "name": "",
          "type": "bytes32"
        }
      ],
      "payable": false,
      "stateMutability": "view",
      "type": "function"
    }
  ],
  "bytecode": "0x6060604052341561000f57600080fd5b6102198061001e6000396000f300606060405260043610610057576000357c0100000000000000000000000000000000000000000000000000000000900463ffffffff16806317d667571461005c57806373c2d66e1461009f5780638cceb353146100d0575b600080fd5b341561006757600080fd5b61008160048080356000191690602001909190505061010f565b60405180826000191660001916815260200191505060405180910390f35b34156100aa57600080fd5b6100b2610134565b60405180826000191660001916815260200191505060405180910390f35b34156100db57600080fd5b6100f560048080356000191690602001909190505061013d565b604051808215151515815260200191505060405180910390f35b6000600160008360001916600019168152602001908152602001600020549050919050565b60008054905090565b60008160016000805460001916600019168152602001908152602001600020816000191690555081600081600019169055507fe1378fff7a4de0add7166e0b299012cc9633127298d6d8d721055b3dd66f741f600054336040518083600019166000191681526020018273ffffffffffffffffffffffffffffffffffffffff1673ffffffffffffffffffffffffffffffffffffffff1681526020019250505060405180910390a1600190509190505600a165627a7a723058205f7d1c7700a9b0b45c86dba5ec934ade8df4a06a035ae34b1dbf2d3d3bc0a0a80029",
  "source": "pragma solidity ^0.4.2;\n\nimport './zeppelin/ownership/Ownable.sol';\n\ncontract Provenance {\n\n  // Variables\n  bytes32 provenanceRoot;\n  mapping(bytes32 => bytes32) lineage;\n\n  // Events\n  event ProvenanceChanged(bytes32 _provenance, address _modifier);\n\n  // Public functions\n  function setProvenanceRoot(bytes32 _provenanceRoot) public returns (bool) {\n\n    // Assign the new provenance\n    lineage[provenanceRoot] = _provenanceRoot;\n    provenanceRoot = _provenanceRoot;\n\n    // Trigger the event and return true\n    ProvenanceChanged(provenanceRoot, msg.sender);\n    return true;\n  }\n\n  function getProvenanceRoot() public constant returns (bytes32) {\n    return provenanceRoot;\n  }\n\n  function getLineageProvenance(bytes32 provenance) public constant returns (bytes32) {\n    return lineage[provenance];\n  }\n}\n",
  "sourcePath": "/Users/sindrikaldal/Documents/School/KTH/Spring-2018/Degree/Code/truffle-ethereum/contracts/Provenance.sol",
  "compiler": {
    "name": "solc",
    "version": "0.4.19+commit.c4cbbb05.Emscripten.clang"
  },
  "schemaVersion": "2.0.0",
  "updatedAt": "2018-03-27T07:55:53.393Z"
}